S0170000576173684D616368696E65415053322E73726563AF
S214400000403240205D3F40000D4040000D404000E3
S2144000100D4040000D4040000D40400000000000F4
S2144000200000000000000000000000000D404000FE
S2144000300D404000000000000D4040000D404000D4
S2144000400D4040000D4040000D404000514F4000E4
S2144000500D4040000D4040000D4040000D40400027
S2144000600D404000000000007930400091304000D4
S214400070A93040000D4040000D4040000D4040007B
S214400080C1304000D93040000D4040000D40400097
S2144000900D4040000D4040000D4040000D404000E7
S2144000A00D4040000D4040000D4040000D404000D7
S2144000B00D4040000D4040000D4040000D404000C7
S2144000C00D4040000D4040000D4040000D404000B7
S2144000D00D4040000D4040000D4040000D404000A7
S2144000E00D4040000D4040000D4040000D40400097
S2144000F00D4040000D4040000D4040000D40400087
S2144001000D4040000D4040000D4040000D40400076
S2144001100D4040000000000000000000000000000D
S2144001200D4040000D4040000D4040000D40400056
S2144001300D4040000D4040000D4040000D40400046
S2144001400D4040000D4040000D4040000D40400036
S2144001500D4040000D4040000D4040000D40400026
S2144001600D4040000D40400010B5054C237833B993
S214400170044B13B10448AFF300800123237010BD35
S214400180500B402000000000D49743000C4B43B176
S2144001900C480D4910B5AFF300800C48036823B9EE
S2144001A010BD0A48036833B97047094B002BF7D097
S2144001B0BDE810401847064B002BF5D0184700BF47
S2144001C000000000D4974300540B4020D4974300CF
S2144001D00000000080B483B000AF78600B467B80A0
S2144001E07A88074B1B68134343F480227B681A6067
S2144001F0002318460C37BD465DF8047B704700BFA9
S2144002006C0B402080B483B000AF78600B46FB7028
S214400210FB78002B0DD0104B1B6843F080730E4AC2
S21440022013607B681A680C4B1B681A437B681A601D
S2144002300CE0094B1B6823F08073074A13607B6809
S2144002401A68054B1B681A437B681A6000BF0C3758
S214400250BD465DF8047B70476C0B402080B485B08B
S21440026000AF786039607B681B68FB60FA683B6863
S2144002701343FB60064B1B68FA681343FB607B68BE
S214400280FA681A6000BF1437BD465DF8047B7047B5
S2144002906C0B402080B485B000AF78603960002396
S2144002A0FB607B681B68FB603B68DB43FA68134077
S2144002B0FB60074B1B68FA681343FB607B68FA6871
S2144002C01A6000BF1437BD465DF8047B704700BF18
S2144002D06C0B402080B485B000AF78607B689B682C
S2144002E0FB6002E07B689B68FB607B689A68FB6803
S2144002F09A42F7D1FB6818461437BD465DF8047B32
S214400300704780B483B000AF78607B68DB6818467F
S2144003100C37BD465DF8047B7047000080B584B05E
S21440032000AF786039607B681B6803F48033FB60FD
S2144003304FF480310D480E4B98473B68002B04D154
S2144003407B684FF0FF325A6003E03B685A1E7B687A
S2144003505A60FB68002B04D04FF480310348054BAD
S2144003609847002318461037BD4680BD30180E40CB
S214400370950240005D02400082B090B587B002AF63
S2144003803C1D84E807007B627B6800934023402244
S214400390142114200C4CA0477B6A00934023402233
S2144003A080211420084CA0473B6B009340234022FA
S2144003B0F0211420044CA04700BF1437BD46BDE8CA
S2144003C0904002B0704700BFDD27400090B585B032
S2144003D002AF786039603648364B98474FF4A07382
S2144003E04FF4C8724FF482714FF48870324CA04775
S2144003F046238222282164202F4CA047AA23AA22E3
S2144004008C2164202C4CA0474FF4917391224FF4DA
S21440041082716420284CA047D6234FF4BC729621A4
S2144004204FF49C70244CA0470020224B98477B6892
S2144004305B6B1B6800934023402296214FF49C70D0
S2144004401E4CA0477B681A464FF482714FF4887062
S2144004501B4B98477B685B6A1A461A4938681A4BA2
S21440046098473A6828216420154B98477B689B6AD2
S2144004701A4614493868144B98473A688C216420C9
S2144004800F4B98477B6893F83130002B06D00F4AC5
S2144004904FF4827164200A4B984705E00C4A4FF4AB
S2144004A082716420064B984700BF0C37BD4690BD0E
S2144004B0FCFCFC00A1244000CD254000DD27400088
S2144004C07D274000ECEB400001624000F0EB40002E
S2144004D0F4EB400090B583B002AF0B4B0093402343
S2144004E0402200214FF4AA70084CA0470020084B39
S2144004F09847084A48214FF49670074B984700BFE4
S2144005000437BD4690BD00BFECBB4000DD27400031
S214400510A1244000F8EB40007D27400080B489B01D
S21440052000AF78607B68FB61FB69BB61BB697B6140
S2144005307B695B093B613A690B4B13445B02DA6BA0
S214400540FB69FB60FB6803F01F03012101FA03F31C
S2144005501340002B14BF01230023DBB21846243778
S214400560BD465DF8047B70470707200080B485B021
S21440057000AF78600023BB730023FB730EE07B68FC
S2144005805968FA7B13465B0013445B000B445A7968
S214400590BB7B1344BB73FB7B0133FB737B681B68DD
S2144005A09B79FA7B9A42EAD3BB7B18461437BD4602
S2144005B05DF8047B7047000080B588B000AF786077
S2144005C00720154B984703461A467B681A6007F182
S2144005D00C0300221A605A609A60DA601A6102239D
S2144005E03B617B681B687B610723BB617B681B7B29
S2144005F03B777B689B6807F10C0211461846074B11
S21440060098470346002B02D04FF0FF3300E000230C
S21440061018462037BD4680BD195A4000AD394000C7
S21440062080B588B000AF78607B681B689B791A46B7
S21440063013465B0013445B0018461A4B9847034624
S2144006401A467B685A6007F10C0300221A605A600B
S2144006509A60DA601A6107233B7302233B617B682A
S2144006605B687B617B681B689B791A4613465B0018
S21440067013445B00BB617B681B7B3B777B689B6856
S21440068007F10C0211461846074B98470346002BC5
S21440069002D04FF0FF3300E0002318462037BD4617
S2144006A080BD00BF195A4000AD39400080B584B0C7
S2144006B000AF786078680D4B98470346FB73FB7B2A
S2144006C0002B02D097F90F300BE07868084B98471C
S2144006D00346FB73FB7B002B02D097F90F3000E0FC
S2144006E0002318461037BD4680BD00BFB905400000
S2144006F02106400080B584B000AF786001233B738C
S2144007007868334B98470346FB72FB7A5B00184683
S214400710304B984703461A467B685A610023FB7362
S2144007204AE00023BB7338E07B685968FA7B13467F
S2144007305B0013445B000B445B79002B2AD00023FC
S2144007407B731BE07B685A693B7B5B00D1187B68F8
S2144007505868FA7B13465B0013445B0003441B78DF
S2144007600B707B685A693B7B5B001344BA7B5A70BC
S2144007703B7B01333B737B7B01337B737B685968E0
S214400780FA7B13465B0013445B000B445B797A7B31
S2144007909A42D7D3BB7B0133BB737B685968FA7BDD
S2144007A013465B0013445B000B441B79BA7B9A42AA
S2144007B0BAD9FB7B0133FB737B681B689B79FA7B5A
S2144007C09A42AED3002318461037BD4680BD00BFC0
S2144007D06D054000195A400080B485B000AF78607F
S2144007E00B46FB701346BB70BB789BB21B029AB29B
S2144007F0FB789BB213437B817B685A007B895340CE
S214400800FB60FB6803F08073002B04D0054B1B682D
S214400810FA685340FB60FB6818461437BD465DF8DF
S214400820047B704708EC400080B588B000AF786025
S21440083039600023FB617B681B687B617B685B6873
S2144008403B617B681B689B799BB21A4652001344F7
S2144008505B009BB20733FB8100237B8310E07B8BDE
S2144008607A69134419787B8B01337A6913441B7871
S2144008701A46F869204B9847F8617B8B02337B8396
S2144008807B8B052BEBD97B69063319783B691B7844
S2144008901A46F869184B9847F86101237B8310E0A5
S2144008A07B8B3A69134419787B8B01333A6913443E
S2144008B01B781A46F869104B9847F8617B8B0233D1
S2144008C07B837A8BFB89083B9A42E9DBFB89083BB2
S2144008D03A6913441B7800221946F869064B984734
S2144008E0F861FB6923F07F423B681A600023184694
S2144008F02037BD4680BD00BFD907400080B58AB0CE
S21440090000AF78607B681B689B799BB21A465200A2
S21440091013445B009BB20733FB8407F10C030022B1
S2144009201A605A609A60DA601A61FB8CDBB23B73DD
S214400930FB8C1B0A9BB2DBB27B7302233B6107F145
S21440094020037B610323BB617B681B7B3B777B6813
S2144009509B6807F10C02114618460B4B9847034616
S214400960002B02D04FF0FF3309E097F822301B04EB
S21440097097F821201202134397F820201343184675
S2144009802837BD4680BD00BFAD39400080B584B035
S21440099000AF786007F1080319467868084B984717
S2144009A07868084B9847F860BA68FB689A4202D065
S2144009B06FF0030300E0002318461037BD4680BDA5
S2144009C029084000FD08400080B485B000AF78603C
S2144009D00B467B800023FB731CE07B685968FA7BE0
S2144009E013465B0013445B000B44B3F801309BB2E4
S2144009F07A889A420BD17B685968FA7B13465B002B
S214400A0013445B000B44DB780133DBB209E0FB7B2D
S214400A100133FB737B681B689B79FA7B9A42DCD375
S214400A20002318461437BD465DF8047B7047000027
S214400A3080B584B000AF78600B46FB707868104B8A
S214400A4098470346BB730023FB730EE07B685A69E6
S214400A50FB7B5B0013441B78FA789A4202D197F9E5
S214400A600F3008E0FB7B0133FB73FA7BBB7B9A427B
S214400A70ECD34FF0FF3318461037BD4680BD00BF5D
S214400A806D05400080B485B000AF78600023FB73EE
S214400A9017E07B685968FA7B13465B0013445B009B
S214400AA019447B685868FA7B13465B0013445B0026
S214400AB00344B3F801309BB2A1F80130FB7B01330D
S214400AC0FB737B681B689B79FA7B9A42E1D300BF35
S214400AD01437BD465DF8047B7047000080B586B08D
S214400AE000AFF860B9603B601346FB71FB68BA68BC
S214400AF09A60FB68FA791A73FB683A689A61FB68F1
S214400B0000221A61F8681E4B98470346FB7597F912
S214400B101730002B02D097F917302CE0F868194BA5
S214400B2098470346FB7597F91730002B02D097F984
S214400B30173020E0F868144B9847F868134B9847EE
S214400B400346FB7597F91730002B02D097F91730FC
S214400B5011E00921F8680E4B98470346FB7597F954
S214400B601730B3F1FF3F02D16FF0030303E0FB6899
S214400B70FA7D1A77002318461837BD4680BD00BF59
S214400B80AD0640008D094000850A4000F50640004D
S214400B90310A400080B485B000AF78600B46FB70E9
S214400BA01346BB700023FB731AE07B685968FA7BD8
S214400BB013465B0013445B000B441B78FA789A425A
S214400BC00BD17B685968FA7B13465B0013445B0085
S214400BD00B44B3F801309BB209E0FB7B0133FB7357
S214400BE07B681B689B79FA7B9A42DED300231846C3
S214400BF01437BD465DF8047B7047000080B58AB068
S214400C0000AFF8600B467A607B8107F11403002240
S214400C101A605A609A60DA601A617B89DBB23B756B
S214400C207B891B0A9BB2DBB27B750223BB617B6868
S214400C30FB617B891946F8680D4B984703463B6233
S214400C40FB681B7B87F82430FB689B6807F114021F
S214400C5011461846074B98470346002B02D04FF0E4
S214400C60FF3300E0002318462837BD4680BD00BF4E
S214400C70C9094000953A400080B588B000AF78601A
S214400C800B467B8013467B7007F10C0300221A60EC
S214400C905A609A60DA601A617B88DBB23B737B8865
S214400CA01B0A9BB2DBB27B7302233B617B1C7B61DE
S214400CB00123BB617B681B7B3B777B689B6807F1A6
S214400CC00C0211461846064B98470346002B02D0A6
S214400CD04FF0FF3300E0002318462037BD4680BD66
S214400CE0953A400080B582B000AF78607B689B69DB
S214400CF01846074B9847034683F00103DBB2002BA8
S214400D0001D0012300E0002318460837BD4680BDC9
S214400D101D05400080B588B000AF7860396000227D
S214400D2005217868174B98470346FB8307F108036D
S214400D3000221A605A609A60DA601A61FB8BDBB256
S214400D403B72FB8B1B0A9BB2DBB27B720223FB60BF
S214400D503B683B6109237B617B681B7B3B767B68FA
S214400D609B6807F1080211461846074B984703460A
S214400D70002B02D04FF0FF3300E000231846203708
S214400D80BD4680BD950B4000AD39400080B586B06D
S214400D9000AF7860396042E007F10C031946786886
S214400DA0254B98470346FB75FB7D002B02D097F9F1
S214400DB017303CE007F10C03194678681F4B9847FC
S214400DC00346BB75BB7D092B29D13A7B7B6893F9DB
S214400DD01C30DBB2D31ADAB23B681A707A7B3B68B7
S214400DE05A70BB7B1B011AB23B7C1B09DBB21BB2A1
S214400DF013431BB29AB23B685A80FB7B1B011AB264
S214400E003B7C1BB203F00F031BB213431BB29AB2D8
S214400E103B689A807A7C3B689A71002307E0786842
S214400E20074B98470346002BB6D16FF0030318468E
S214400E301837BD4680BD00BF150D4000450E40002A
S214400E40E50C400080B483B000AF786039607B68C2
S214400E505A693B681B785B0013441B7818460C376E
S214400E60BD465DF8047B704780B582B000AF7860C1
S214400E707B68072B31D801A252F823F0D90E4000E8
S214400E809D0E4000A50E4000AD0E4000B50E400041
S214400E90BD0E4000C50E4000CF0E40000020114B56
S214400EA098471AE001200F4B984716E000200E4B5B
S214400EB0984712E010200C4B98470EE020200A4B33
S214400EC098470AE03E210020084B984705E03E211F
S214400ED00120064B984700E000BF00BF0837BD46DC
S214400EE080BD00BFF13140005D324000CD32400051
S214400EF080B582B000AF78607B68072B26D801A209
S214400F0052F823F0250F4000290F4000290F4000DB
S214400F103B0F40003B0F40003B0F40003B0F400064
S214400F203B0F4000012312E00B4B98470346002B33
S214400F3014BF01230023DBB209E0084B9847034661
S214400F40002B14BF01230023DBB200E00023184629
S214400F500837BD4680BD00BF2932400045334000BB
S214400F6080B483B000AF78607B68072B25D801A299
S214400F7052F823F0950F40009B0F4000A10F400011
S214400F80A70F4000AB0F4000AF0F4000B30F40002C
S214400F90B70F40004FF4FA4310E04FF400430DE023
S214400FA04FF400430AE0084B08E0084B06E0084BC5
S214400FB004E0074B02E0064B00E0002318460C37DF
S214400FC0BD465DF8047B704700093D0000127A007C
S214400FD0001BB70080B582B000AF0346FB7100BF70
S214400FE0FB791846054B9847034683F00103DBB26E
S214400FF0002BF5D100BF0837BD4680BDF10E40003E
S21440100080B586B000AFF8607A603B600B46FB72F6
S2144010107B68002B07D13B68002B04D1FB684FF45C
S21440102070021A6019E0FB7A18460E4B9847024643
S2144010307B68B2FBF3F37B617B693A6802FB03F3A0
S2144010407B613B68013B1A04074B13407A68D2B277
S214401050134343F47C52FB681A6000BF1837BD4602
S21440106080BD00BF610F40000000FF0780B582B022
S21440107000AF786039603B68002B08D1094B984731
S214401080094A7B681B6843F00053936205E0064AB2
S2144010907B681B6843F48033D36100BF0837BD4686
S2144010A080BD00BF6133400000060E4080B582B070
S2144010B000AF78607B68002B03D1054B984703460A
S2144010C002E0044B9847034618460837BD4680BDA5
S2144010D07D3340009933400080B582B000AF034670
S2144010E0FB71FB79033B042B08D8FB791846064B6B
S2144010F09847FB791846054B984700E000BF00BF6D
S2144011000837BD4680BD00BF690E4000D50F400081
S21440111080B582B000AF786000BF7868044B9847CF
S2144011200346002BF9D0002318460837BD4680BD3D
S214401130AD10400080B500AF0620054B98470246EC
S21440114013469B0013449A001344184680BD00BFC4
S214401150610F400080B500AF024B984703461846E3
S21440116080BD00BF3511400090B583B000AF134836
S214401170134B98470620134B9847381D19230122D6
S2144011800621114CA0473B1D002118460F4B98479F
S21440119000200F4B984702200E4B984700200E4BDE
S2144011A098470E4B98470E4B984703461846044BB5
S2144011B0984700BF0C37BD4690BD00BF000E2707BE
S2144011C07D414000D9104000011040006D104000A5
S2144011D011114000F13040006D3140001540400094
S2144011E05511400080B582B000AF78600B46FB706A
S2144011F07B68364A93420AD100BFFB781946786826
S214401200334B98470346002BF7D101235AE07B68BF
S214401210304A93420AD100BFFB78194678682C4B77
S21440122098470346002BF7D101234BE07B682A4AB8
S21440123093420AD100BFFB7819467868244B9847FA
S2144012400346002BF7D101233CE07B68234A9342B8
S2144012500AD100BFFB78194678681D4B984703466D
S214401260002BF7D101232DE07B681D4A93420AD11B
S21440127000BFFB78194678681A4B98470346002B00
S214401280F7D101231EE07B68174A93420AD100BF7C
S214401290FB7819467868134B98470346002BF7D1DE
S2144012A001230FE07B68114A93420AD100BFFB78C6
S2144012B0194678680B4B98470346002BF7D1012315
S2144012C000E0002318460837BD4680BD00080E40A3
S2144012D0E73B4000000A0E40001A0E40001C0E403D
S2144012E0004002404D3E40000080024000C00240A8
S2144012F080B584B000AFF860B9607A600BE0BB6838
S2144013001B781946F868084B98477B68013B7B601A
S214401310BB680133BB607B68002BF0D100231846C6
S2144013201037BD4680BD00BFE511400080B483B095
S21440133000AF78607B68072B25D801A252F823F0CF
S21440134061134000671340006D1340007313400064
S214401350771340007B1340007F1340008313400008
S2144013604FF4FA4310E04FF400430DE04FF40043CF
S2144013700AE0084B08E0084B06E0084B04E0074B41
S21440138002E0064B00E0002318460C37BD465DF8E9
S214401390047B704700093D0000127A00001BB7002E
S2144013A080B500AF0620054B9847024613469B0083
S2144013B013449A001344184680BD00BF2D134000C6
S2144013C080B500AF024B984703465B08184680BD81
S2144013D0A113400080B483B000AF78607B68802261
S2144013E01A6000BF0C37BD465DF8047B704780B47A
S2144013F083B000AF78607B685B6843F001027B682F
S2144014005A6000BF0C37BD465DF8047B704780B419
S21440141083B000AF78607B685B6823F002027B682D
S2144014205A6000BF0C37BD465DF8047B704780B4F9
S21440143083B000AF78607B685B6823F004027B680B
S2144014405A6000BF0C37BD465DF8047B704780B4D9
S21440145083B000AF78607B685B6803F00403002BC2
S21440146001D0012300E0002318460C37BD465DF846
S214401470047B704780B483B000AF78607B685B685D
S21440148043F010027B685A6000BF0C37BD465DF8DB
S214401490047B704780B483B000AF78607B685B683D
S2144014A023F080027B685A6000BF0C37BD465DF86B
S2144014B0047B704780B483B000AF78600B467B8077
S2144014C07A887B68DA6000BF0C37BD465DF8047BDF
S2144014D0704780B483B000AF78607B689B689BB2EF
S2144014E018460C37BD465DF8047B704780B483B021
S2144014F000AF78607B681B6903F00203002B01D0C5
S214401500012300E0002318460C37BD465DF8047BF7
S214401510704780B483B000AF78607B681A6940F249
S2144015200123134040F20122934201D1012300E0FF
S214401530002318460C37BD465DF8047B7047000014
S21440154080B582B000AF78600B46FB70FB789BB2EC
S21440155019467868024B984700BF0837BD4680BD9D
S214401560B514400080B582B000AF786039607868C6
S214401570044B98470346DAB23B681A7000BF0837F8
S214401580BD4680BDD314400080B582B000AF7860C1
S2144015907868104B984778680F4B984778680F4B99
S2144015A0984778680E4B984778680E4B98470021C6
S2144015B078680D4B984778680C4B984778680C4B82
S2144015C09847002178680B4B984700BF0837BD46C0
S2144015D080BD00BF35344000D5134000EF134000B7
S2144015E07514400095144000713440000F144000BC
S2144015F02F144000A534400090B587B000AFF86087
S214401600B9603B601346FB71204B9847034619462A
S21440161038681F4B98470346FB82BB68196800230F
S2144016200022F8681B4CA047BB681B680822194676
S214401630F868194B9847BB681B68FA8AD2B21946B5
S214401640F868164B9847BB681B6808221946F86826
S214401650134B9847BB681968FB795B08DBB21A46A0
S214401660F868104B9847BB681968FB7903F001038C
S214401670002B0CBF01230023DBB21A46F8680A4B46
S214401680984700BF1C37BD4690BD00BFC113400001
S214401690E53640007F3740009B364000213740000B
S2144016A0F535400055354000A535400080B582B040
S2144016B000AF786039607868104B98470346002B37
S2144016C00AD03B681B680F2B14D83B681B6819462A
S2144016D078680B4B98470DE03B681B68032B09D88E
S2144016E03B681B68012202FA03F3DB43194678681D
S2144016F0034B984700BF0837BD4680BD4F14400097
S2144017007134400080B588B000AFF860B9607A6048
S21440171043F69823FB610023BB6121E043F6982300
S214401720FB6107E0FB695A1EFA61002B02D16FF09D
S214401730020319E0F8680E4B98470346002BF1D099
S214401740BA68BB6913441B78FB75FB7D1946F8687D
S214401750084B9847BB690133BB617B68013B7B60A4
S2144017607B68002BDAD1002318462037BD4680BD63
S214401770ED1440004115400080B588B000AFF860D9
S214401780B9607A6043F69823FB610023BB6138E07A
S21440179043F69823FB6107E0FB695A1EFA61002B6B
S2144017A002D16FF0020330E0F8681A4B98470346C0
S2144017B0002BF1D0FF21F868174B984743F6982343
S2144017C0FB6107E0FB695A1EFA61002B02D16FF0FD
S2144017D002031AE0F868114B98470346002BF1D0F5
S2144017E007F117031946F8680D4B9847BA68BB6966
S2144017F01344FA7D1A70BB690133BB617B68013BB9
S2144018007B607B68002BC3D1002318462037BD463B
S21440181080BD00BFED144000411540001315400048
S2144018206515400080B586B000AFF860B9607A6054
S21440183000237B61FB68002B12D04FF0FF3313E090
S2144018400B4B1B680B4A1268B96810469847BB6832
S2144018500133BB607B6901337B617B68013B7B6006
S2144018607B68002BECDC7B6918461837BD4680BD8C
S214401870C8114020D011402080B586B000AFF86037
S214401880B9607A6000237B61FB68012B1ED0FB6841
S214401890022B1BD0FB68032B18D04FF0FF3319E008
S2144018A00E4B1A680E4B1868BB68591CB9601B78FB
S2144018B0194690470346002B02DA4FF0FF3309E003
S2144018C07B6901337B617B68013B7B607B68002BD7
S2144018D0E6D17B6918461837BD4680BDCC114020FE
S2144018E0D011402080B400AFBFF34F8FBFF36F8F4F
S2144018F0094B0022C3F85022074A074B5B6943F462
S21440190000335361BFF34F8FBFF36F8F00BFBD46A9
S2144019105DF8047B704700BF00ED00E080B48BB0FC
S21440192000AF264BD3F88030FB61FB695B0BC3F3FB
S2144019300E037B62FB6903F007030433BB61FB695C
S214401940DB08C3F309037B617B69BB60BB68B3FA02
S21440195083F37B607B68DBB203F01F033B61BFF31E
S2144019604F8F7B693B623A6A3B6902FA03F319463A
S2144019707A6ABB6902FA03F30B43FB600F4AFB68C3
S214401980C2F860323B6A5A1E3A62002BEBD17B6A41
S2144019905A1E7A62002BE4D1BFF34F8F074A074B9B
S2144019A05B6943F480335361BFF34F8FBFF36F8F50
S2144019B000BF2C37BD465DF8047B704700ED00E065
S2144019C080B582B000AF78607868034B984700BF18
S2144019D00837BD4680BD00BFB533400080B500AF78
S2144019E00A20084B98470B20064B98470C20054B7F
S2144019F098471020034B98471120024B984700BF4A
S214401A0080BD00BFC119400080B489B000AF786087
S214401A107B68FB61FB69BB61BB695A09FB697B61FB
S214401A207B6903F01F03012101FA03F33A61FB606F
S214401A303B69BB60BA68064B13445B021A46FB68B8
S214401A40536000BF2437BD465DF8047B704700BF37
S214401A500707200080B48DB000AF786039607B689F
S214401A60FB623B68BB62FB6A7B627B6A5A09FB6A25
S214401A703B623B6A03F01F03012101FA03F3FA615C
S214401A80BB61BB6A7B61FB693B613A69374B134478
S214401A905B02FB607B6903F00803002B03D0FB6806
S214401AA0BA695A6602E0FB68BA691A667B6903F04F
S214401AB01003002B04D0FB68BA69C3F8942003E0F7
S214401AC0FB68BA69C3F890207B6903F02003002BBB
S214401AD003D0FB68BA691A6502E0FB68BA695A65C2
S214401AE07B6903F0C003002B03D0FB68BA691A6217
S214401AF002E0FB68BA695A627B6903F08003002BF8
S214401B0004D0FB68BA69C3F8842003E0FB68BA696E
S214401B10C3F880207B6903F00103002B06D0FB68E6
S214401B201A6FBB691A43FB681A6706E0FB681A6FB0
S214401B30BB69DB431A40FB681A677B6903F0020304
S214401B40002B06D0FB685A6FBB691A43FB685A677E
S214401B5006E0FB685A6FBB69DB431A40FB685A676E
S214401B6000BF3437BD465DF8047B7047070720004A
S214401B7080B48DB000AF78600B46FB707B68FB622C
S214401B80FB7887F82B30FB6A7B627B6A3B623B6A5A
S214401B905B09FB61FA69174B13445B02BB6197F81C
S214401BA02B30012B09D1FB6A7B617B6903F01F0355
S214401BB001229A40BB691A610CE097F82B30002B43
S214401BC008D1FB6A3B613B6903F01F0301229A4040
S214401BD0BB695A61FB6AFB60FB6803F01F03012286
S214401BE09A40BB69C3F8A02000BF3437BD465DF8B5
S214401BF0047B70470707200080B48BB000AF786046
S214401C000B46FB707B687B62FB7887F823307B6AE9
S214401C10FB61FB69BB61BB695B097B617A69104B01
S214401C2013445B023B6197F82330002B09D07B6A54
S214401C30FB60FB6803F01F0301229A403B691A636E
S214401C4008E07B6ABB60BB6803F01F0301229A4032
S214401C503B695A6300BF2C37BD465DF8047B70472E
S214401C600707200080B48DB000AF78600B46FB704D
S214401C707B68FB62FB7887F82B30FB6A7B627B6A6B
S214401C805A09FB6A3B623B6A03F01F03012101FAD3
S214401C9003F3FA61BB6197F82B30FB75FB693B6138
S214401CA03A69234B13445B02FB60FB7D013B032BED
S214401CB02ED801A252F823F0ED1C4000FF1C400035
S214401CC0C91C4000DB1C4000FB68BA69C3F8C4204E
S214401CD0FB68BA69C3F8D0201FE0FB68BA69C3F84E
S214401CE0C420FB68BA69C3F8D42016E0FB68BA691A
S214401CF0C3F8C020FB68BA69C3F8D0200DE0FB6883
S214401D00BA69C3F8C020FB68BA69C3F8D42004E0B7
S214401D10FB68BA69C3F8B42003E0FB68BA69C3F845
S214401D20B02000BF3437BD465DF8047B704700BF27
S214401D300707200080B400AFBFF34F8FBFF36F8F0D
S214401D400C4A0C4BD3F8903223F00103C2F8903281
S214401D50084A084BD3F8943223F00103C2F8943271
S214401D60BFF34F8FBFF36F8F00BFBD465DF8047B58
S214401D70704700BF00ED00E098B500AF5E4B4FF4F3
S214401D8000425A605D4B98475D4B98475D4B5E4AB4
S214401D905A605C4B5D4A5A605D4B98475D4B98472E
S214401DA0012148205C4B9847012148205B4B9847CF
S214401DB000210B20584B984788210B20584B9847BA
S214401DC002210B20574B984700211520544B98472B
S214401DD01520554B9847554A544BD3F8143143F089
S214401DE01003C2F81431032124204D4B9847242079
S214401DF04D4B984700210320494B984703204A4BB8
S214401E00984700210420464B98470420464B984765
S214401E1000234FF400524FF060514548454CA047D0
S214401E2000234FF080424FF060514148414CA0475C
S214401E300123FF224FF000613D483E4CA04701235E
S214401E403F224FF000613C483A4CA04701234FF4F4
S214401E50C0324FF000613948364CA04701234FF45A
S214401E6080724FF000613248324CA04701234FF455
S214401E7000624FF000612E482E4CA04701234FF4DD
S214401E8000224FF000612E482A4CA04700234FF412
S214401E9000724FF080512648264CA0474FF4007100
S214401EA02348284B98474FF080517420264B98473C
S214401EB04FF080517520244B98474FF08051762044
S214401EC0214B98474FF080517B201F4B98474FF04F
S214401ED0605118201C4B98474FF0605106201A4B13
S214401EE098474FF060515320174B98475320174B55
S214401EF0984700BF98BD00BF50180E40E5184000F8
S214401F001D194000000C0E400C08005A0C07005AE1
S214401F10351D4000DD194000711B4000F91B400094
S214401F20551A4000651C4000091A400000800840D1
S214401F3000120E404D2B400000160E40000E0E4084
S214401F4000140E40F52840004D2D4000ED2C40007A
S214401F5080B483B000AF78607B6801221A6000BF0F
S214401F600C37BD465DF8047B704780B483B000AF45
S214401F70786039607B683A685A6100BF0C37BD4666
S214401F805DF8047B7047000090B583B000AF062034
S214401F900A4B9847002303222C210948094CA047A6
S214401FA000237B6002E07B6801337B607B68FE2B0E
S214401FB0F9D900BF0C37BD4690BD00BF1D2D40006F
S214401FC000800040D534400080B584B000AF7860D3
S214401FD039600620094B98473A6879680848094BA3
S214401FE098470023FB6002E0FB680133FB60FB6818
S214401FF0FE2BF9D900BF1037BD4680BDED2C400002
S214402000008000400517400090B587B000AF0346FB
S214402010B9607A60FB730620144B9847FB7B99B2F5
S214402020002303221248134CA04700237B6102E0A2
S2144020307B6901337B617B69FE2BF9D97B68002B7A
S21440204010D006200C4B98477A68B96808480B4B66
S214402050984700237B6102E07B6901337B617B69A3
S2144020605E2BF9D900BF1C37BD4690BD1D2D4000E4
S21440207000800040D5344000ED2C4000051740005D
S21440208080B584B000AF0023BB608123BB700023C3
S2144020907B700323FB6048E0BB1C01221946FB20F3
S2144020A0264B9847BB780133DBB2BB7000237B607E
S2144020B002E07B6801337B607B68FE2BF9D9002207
S2144020C00021D3201D4B984706201D4B9847FB1CEC
S2144020D0012219461B481C4B984700237B6002E0B0
S2144020E07B6801337B607B68FE2BF9D9FB781A4608
S2144020F0FB68013BDB0002FA03F31A46BB68134356
S214402100BB607B1C01221946FB200C4B98470023E2
S2144021107B6002E07B6801337B607B6840F6FE7242
S2144021209342F7D9FB68013BFB60FB68002BB3D1B9
S214402130BB6818461037BD4680BD00BF092040002A
S214402140ED2C4000008000407917400080B485B0F8
S21440215000AF78600023FB600CE00023FB6002E0E9
S214402160FB680133FB60FB68074A9342F8D9FB687B
S2144021700133FB60FA687B689A42EED300BF14379F
S214402180BD465DF8047B70479F86010080B487B0EB
S21440219000AFF860B9607A603B60FB681B68B3F5D7
S2144021A0F07F03D3FB6840F2DF121A607B681B683F
S2144021B0B3F5F07F03D37B6840F2DF121A60BB684A
S2144021C01B68B3F5A07F03D3BB6840F23F121A608A
S2144021D03B681B68B3F5A07F03D33B6840F23F12D1
S2144021E01A60FB681A687B681B689A4209D9FB68C4
S2144021F01B687B617B681A68FB681A607B687A6933
S2144022001A60BB681A683B681B689A4209D9BB6863
S2144022101B687B613B681A68BB681A603B687A69D2
S2144022201A6000BF1C37BD465DF8047B704700004F
S21440223080B584B000AF0346FB71FB79002B02D01B
S214402240E823FB7301E04823FB7307F10F030122E9
S21440225019463620024B984700BF1037BD4680BD12
S2144022600920400090B587B000AF044608461146A6
S2144022701A462346FB800346BB800B467B801346AC
S2144022803B8000237B6104237B61FB887B827A88CA
S214402290FB8813449BB2013B9BB23B82BB88FB81CD
S2144022A03A88BB8813449BB2013B9BB2BB8107F183
S2144022B012035B783B7207F112031B787B7207F1BF
S2144022C010035B78BB7207F110031B78FB7207F1B3
S2144022D008037A6919462A20134B984700220021A2
S2144022E00020114B984707F10E035B783B7207F1CD
S2144022F00E031B787B7207F10C035B78BB7207F109
S2144023000C031B78FB7207F108037A6919462B20E9
S214402310054B9847002200210020034B984700BFFA
S2144023201C37BD4690BD00BF0920400090B589B01F
S21440233002AF78600323FB604348444B984707F15D
S2144023400C0100230093424B03223F48414CA047D8
S214402350002203213C48404B984707F10C0319469E
S21440236039483E4B984738483D4B984701213648B8
S2144023703C4B98470022002101203B4B9847C82001
S2144023803A4B9847002200211120374B9847C820E7
S214402390364B9847364B984778617B6949F2884276
S2144023A0934201D001234AE04823FB7407F113030C
S2144023B00122194636202C4B984764202B4B9847D1
S2144023C00423FB7407F1130301221946CF20264B42
S2144023D098476420254B98470623FB7407F1130360
S2144023E0012219463A20204B984764201F4B9847B5
S2144023F00022002113201C4B984764201B4B984713
S2144024001C4B98476420194B984701201A4B984715
S2144024106420164B98477B681B689AB27B685B685B
S2144024209BB200210020154CA0477B689B6818464D
S214402430134B984700210020124B9847002318461C
S2144024401C37BD4690BD00BF008000408915400047
S214402450002D3101F9154000F5354000AD1640001D
S214402460511F40006B1F4000092040004D21400096
S21440247081204000892440003122400065224000EF
S214402480A1244000F524400080B500AF0022002182
S2144024902920024B984700BF80BD00BF092040005E
S2144024A080B485B000AF78600023FB6016E0FB6820
S2144024B05A1CFA607A68120CD1B20D4AD154FB68A5
S2144024C05A1CFA607A68120AD1B2094AD154FB689B
S2144024D05A1CFA607A68D1B2054AD154FB68B3F503
S2144024E0B46FE4D300BF1437BD465DF8047B704735
S2144024F0700B402080B584B000AF03460A46FB8090
S2144025001346BB800023FB600423FB60BB1D5B7847
S2144025103B72BB1D1B787B72BB1D5B78BB72BB1DC1
S2144025201B78FB7207F10803FA6819462A20114BFC
S21440253098470022002100200E4B98473B1D5B78B1
S2144025403B723B1D1B787B723B1D5B78BB723B1D11
S2144025501B78FB7207F10803FA6819462B20054BD7
S2144025609847002200210020024B984700BF1037B2
S214402570BD4680BD0920400080B582B000AF78607F
S21440258039607B68B3F5F07F03D23B68B3F5A07F34
S21440259001D301230EE07B689BB23A6892B21146A3
S2144025A01846064B9847064B984703210548064B66
S2144025B09847002318460837BD4680BDF52440009E
S2144025C0891F4000700B4020C91F400090B587B05F
S2144025D000AFF860B9607A603B603B463A1D07F151
S2144025E0080107F10C002A4CA047FB6898B2BB686C
S2144025F099B27B689AB2FB689BB2D31A9BB20133FE
S2144026009CB23B689AB2BB689BB2D31A9BB201336A
S2144026109BB222461F4CA0471F4B98477A68FB68E0
S214402620D31A01333968BA688A1A013202FB03F3B7
S2144026303B613B69194AA2FB03231B0A7B6104E00A
S2144026404FF4B4611648174B98477B695A1E7A6117
S214402650002BF5D13969114BA3FB01231A0A134607
S2144026601B019B1A5B01CA1A13465B0013441946AA
S2144026700B480C4B98474FF4A0734FF4F072002170
S2144026800020044CA04700BF1C37BD4690BD00BF8D
S2144026908D21400065224000891F40008988888837
S2144026A0700B4020C91F400080B58AB000AFF8606C
S2144026B0B9601346FB71FA7913469B0013449B009E
S2144026C0A3F52073FB6100233B624BE03B6A5A0054
S2144026D0FB691344BB61BB6901337B6100237B62AA
S2144026E019E0244ABB6913441B781A467B6AC3F137
S2144026F0070342FA03F303F00103002B08D0FA68FD
S2144027003B6AD018BA687B6A134419461A4B9847F6
S2144027107B6A01337B627B6A072BE2D900237B62AC
S2144027201AE0144A7B6913441B781A467B6AC3F145
S214402730070342FA03F303F00103002B09D0FA68BB
S2144027403B6AD018BA687B6A1344083319460A4B6A
S21440275098477B6A01337B627B6A052BE1D93B6AEB
S21440276001333B623B6A092BB0D900BF2837BD46D0
S21440277080BD00BF0CEC40007925400080B586B097
S21440278000AFF860B9607A60FB687B611CE07B68EC
S2144027901B780A2B08D10E231A46BB681344023313
S2144027A0BB607B69FB600CE07B681B781A46B968A7
S2144027B0F868094B98470A231A46FB6813440233C5
S2144027C0FB607B6801337B607B681B78002BDED127
S2144027D000BF1837BD4680BDA926400090B58BB0D7
S2144027E000AFF860B9607A603B60FB683B62BB68EC
S2144027F0FB61FA687B681344013BBB61BA683B687F
S2144028001344013B7B6107F1140307F1180207F1FB
S2144028101C0107F120001B4CA0473B6A98B2FB699D
S21440282099B2BB699AB23B6A9BB2D31A9BB2013348
S2144028309CB27B699AB2FB699BB2D31A9BB20133B6
S2144028409BB22246104CA047BA693B6AD31A7969B4
S214402850FA698A1A02FB03F37B627A6A13465B00C4
S21440286013441A46B96B2C20084B98474FF4A07374
S2144028704FF4F07200210020034CA04700BF2C37D5
S214402880BD4690BD8D214000652240000920400095
S21440289080B485B000AFF860B9607A607B68002B82
S2144028A003D0FB68BA685A6602E0FB68BA681A66E4
S2144028B000BF1437BD465DF8047B704780B485B0D2
S2144028C000AFF860B9607A60FB68BA68C3F88420E5
S2144028D07B685B004FF40042B2FBF3F3013BC3F36B
S2144028E00D02FB68C3F88C2000BF1437BD465DF868
S2144028F0047B704780B483B000AF786039607B68F3
S2144029003A681A6300BF0C37BD465DF8047B7047D3
S21440291080B487B000AFF860B9607A60BB68B3F146
S214402920405F03D0BB68B3F1605F03D1FB689B6B2D
S2144029307B6102E0FB68DB6B7B617A697B681340F6
S214402940002B01D1002300E0012318461C37BD466A
S2144029505DF8047B704780B487B000AFF860B9601C
S2144029607A60FB687A685A64BB68B3F1C05F4AD045
S214402970B3F1C05F08D8B3F1006F16D0B3F1805FF3
S2144029802CD0002B69D064E0B3F1205F65D0B3F162
S214402990205F03D8B3F1005F4AD05AE0B3F1405FFE
S2144029A05BD0B3F1605F58D053E0FB681B6F7B6130
S2144029B0FB681A6F7B68D9437B690B401A40FB68FB
S2144029C01A67FB685B6F7B61FB685A6F7B68D9430D
S2144029D07B690B401A40FB685A673AE0FB681B6FFE
S2144029E07B617A687B691A43FB681A67FB685B6F92
S2144029F07B61FB685A6F7B68D9437B690B401A4002
S214402A00FB685A6725E0FB681B6F7B61FB681A6FA3
S214402A107B68D9437B690B401A40FB681A67FB68A2
S214402A205B6F7B617A687B691A43FB685A6710E084
S214402A30FB681B6F7B617A687B691A43FB681A6781
S214402A40FB685B6F7B617A687B691A43FB685A67F1
S214402A5000BFFB687A685A6000E000BF1C37BD467E
S214402A605DF8047B7047000080B584B000AFF86026
S214402A70B9607A60B968F868194B98477B6803F084
S214402A8001031A46B968F868164B98477B6803F006
S214402A900A03002B03D0FB68BA681A6202E0FB68A0
S214402AA0BA685A627B6803F00203002B04D0FB68C6
S214402AB0BA68C3F8802008E07B6803F00803002B60
S214402AC003D0FB68BA68C3F88420FB68BA685A61CA
S214402AD0FB68BA681A6000BF1037BD4680BD00BFAD
S214402AE0A12C40009128400080B584B000AFF8602B
S214402AF0B9607A603B60B968F868124B9847BA6923
S214402B00B968F868104B98473B68002B03D0FB68C1
S214402B10BA681A6502E0FB68BA685A657B68002B9B
S214402B2003D0FB68BA681A6302E0FB68BA685A6367
S214402B30FB68BA681A61FB68BA681A6000BF10374B
S214402B40BD4680BDA12C40009128400090B587B07E
S214402B5002AFF860B9607A603B60BB68B3F1005F73
S214402B6016D0B3F1005F09D8B3F1805F10D0B3F14F
S214402B70C05F0DD0B3F1006F0AD03DE0B3F1405FC7
S214402B801AD0B3F1605F17D0B3F1205F0ED033E0B8
S214402B907A68B968F8681C4B98473B6803F00103AD
S214402BA01A467968F868194B984727E03A68796872
S214402BB0F868174B984721E0BB68B3F1605F0CBFDD
S214402BC001230023DBB21A463B6803F00403002BC4
S214402BD014BF01230023DBB219463B6803F0010310
S214402BE0002B14BF01230023DBB200930B46796809
S214402BF0F868084CA04701E0002300E0012318468F
S214402C001437BD4690BD00BF57294000912840006C
S214402C10692A4000E92A400080B485B000AFF860D9
S214402C20B9607A607B6803F01003002B20D0FB6805
S214402C30BA68C3F8B0207B6803F02003002B04D0AA
S214402C40FB68BA68C3F8D42003E0FB68BA68C3F8E8
S214402C50D0207B6803F04003002B04D0FB68BA68A2
S214402C60C3F8C02008E0FB68BA68C3F8C42003E095
S214402C70FB68BA68C3F8B42000BF1437BD465DF899
S214402C80047B704780B483B000AF786039607B685F
S214402C903A681A6400BF0C37BD465DF8047B70473F
S214402CA080B483B000AF786039607B683A685A6415
S214402CB000BF0C37BD465DF8047B704780B483B0D8
S214402CC000AF78607B68DB6C18460C37BD465DF815
S214402CD0047B704780B483B000AF78607B689B6CA1
S214402CE018460C37BD465DF8047B704780B584B007
S214402CF000AF78607868084B9847F8607B6803F0C8
S214402D001F03012202FA03F31A46FB681A6300BF48
S214402D101037BD4680BD00BFFD2E400080B584B054
S214402D2000AF78607868084B9847F8607B6803F097
S214402D301F03012202FA03F31A46FB685A6300BFD8
S214402D401037BD4680BD00BFFD2E400090B587B011
S214402D5002AF786039607868634B9847F8603B68A4
S214402D6003F0F043B3F1005F67D0B3F1005F09D8DA
S214402D70B3F1805F2BD0B3F1C05F43D0B3F1006FA7
S214402D800AD0A9E0B3F1405F7ED0B3F1605F7BD05C
S214402D90B3F1205F6CD09FE07B6803F01F030122F5
S214402DA002FA03F31A464FF00061F8684F4B984713
S214402DB07B6803F01F03012202FA03F319463B68BF
S214402DC003F001031A46F868494B984786E07B684B
S214402DD003F01F03012202FA03F31A464FF0805114
S214402DE0F868424B98477B6803F01F03012202FABB
S214402DF003F319463B6803F001031A46F8683C4B58
S214402E0098476BE07B6803F01F03012202FA03F346
S214402E101A464FF0C051F868344B98477B6803F029
S214402E201F03012202FA03F319463B6803F001032D
S214402E301A46F8682E4B984750E07B6803F01F030D
S214402E40012202FA03F31A464FF00051F868274B66
S214402E5098477B6803F01F03012202FA03F31946E2
S214402E603B6803F001031A46F868214B984735E063
S214402E707B6803F01F03012202FA03F33A681946FF
S214402E80F8681C4B984729E07B6803F01F03012233
S214402E9002FA03F319463B6803F06053B3F1605FF0
S214402EA00CBF01230023DBB21A463B6803F0040341
S214402EB0002B14BF01230023DBB218463B6803F007
S214402EC00103002B14BF01230023DBB2009303460B
S214402ED0F868094CA04701E0002300E001231846AB
S214402EE01437BD4690BD00BFFD2E40005729400018
S214402EF091284000692A4000E92A400080B485B005
S214402F0000AF78607B685A09054B13445B02FB6050
S214402F10FB6818461437BD465DF8047B704700BF13
S214402F200707200080B584B000AF786039607868C5
S214402F30264B9847F8607868254B98470246FB68CA
S214402F401340FB60FB68002B3CD00023BB6034E0A2
S214402F50204ABB681B0113441A683B689A4226D134
S214402F601C4ABB681B01134404331A68FB681340B1
S214402F70002B1CD0174ABB681B0113440C331B683C
S214402F801449BA6812010A4410681249BA68120114
S214402F900A4404321268114698470E4ABB681B0121
S214402FA0134404331B68DB43FA681340FB60BB687A
S214402FB00133BB60BB68062B03D8FB68002BC7D128
S214402FC000E000BF00BF1037BD4680BDBD2C4000AE
S214402FD0D52C40001011402080B586B000AFF86078
S214402FE0B9607A603B60214B1B68062B01D90123F0
S214402FF038E00023FB7511E0FB7D1B011C4A13449F
S2144030003B613B691A68BB689A4204D13B695A687F
S2144030107B689A4208D0FB7D0133FB75FA7D134BE3
S2144030201B689A42E8D900E000BF3B69BA681A605C
S2144030303B697A685A603B693A689A603B693A6A83
S214403040DA60FA7D094B1B6801339A4204D1074B7C
S2144030501B680133054A13603A687968F868054B7F
S2144030609847002318461837BD4680BD801140203B
S21440307010114020192C400080B500AF0A210248AC
S214403080024B984700BF80BD000E0E40252F4000E3
S21440309080B500AF0B210248024B984700BF80BD69
S2144030A000100E40252F400080B500AF0C2102488E
S2144030B0024B984700BF80BD00120E40252F4000AF
S2144030C080B500AF10210248024B984700BF80BD34
S2144030D000140E40252F400080B500AF1121024855
S2144030E0024B984700BF80BD00160E40252F40007B
S2144030F080B483B000AF78607B68013B032B1AD85E
S21440310001A252F823F000BF193140001F314000A1
S214403110273140002F31400000237B600EE04FF403
S21440312080737B600AE04FF440737B6006E04FF4A8
S21440313000737B6002E000237B6000BF0A490A4BB5
S2144031401B6B23F440727B6813430B6300BF064B34
S2144031509B6E03F00803002BF9D000BF0C37BD462A
S2144031605DF8047B704700BF00060E4080B485B013
S21440317000AF78601D491D4B1B6B23F070027B68C7
S21440318013430B634FF48053FB6007E0FB68002B50
S21440319001D1012323E0FB68013BFB60134B9B6E90
S2144031A003F00803002BF1D0104A104B1B6B23F0A2
S2144031B0030343F0020313634FF48053FB6007E0BE
S2144031C0FB68002B01D1012309E0FB68013BFB6053
S2144031D0064B9B6E03F00803002BF1D000231846E5
S2144031E01437BD465DF8047B704700BF00060E40AE
S2144031F080B483B000AF78607B68012B05D1074967
S214403200064B9A68064B13438B60044B054A1A607C
S21440321000BF0C37BD465DF8047B704710180E4063
S214403220000010A5080000A580B400AF094B5B69FC
S21440323003F08003002B07D0074B9B6E03F0800300
S214403240002B01D0012300E000231846BD465DF860
S214403250047B704710180E4000060E4080B483B0C2
S21440326000AF78601549154B1A6A154B13430B622D
S21440327000BF124B9B6E03F40033002BF9D00F496E
S2144032800E4B1A6A0F4B13407A68134343F45C1391
S2144032900B6200BF094B9B6E03F40033002BF9D042
S2144032A00649064B1A6A084B134043F45C130B62FC
S2144032B000BF0C37BD465DF8047B704700060E40E5
S2144032C0080037008FFFC8FFFFFFC8FE80B483B0FA
S2144032D000AF786039607B68002B08D01349134BE9
S2144032E01B6A134A1A40134B13430B6218E00F49EC
S2144032F00E4B1A6A104B13403A68120292B21A43A7
S2144033000E4B13430B6200BF084B9B6E03F001034A
S214403310002BF9D00549054B1A6A094B13430B623B
S21440332000BF0C37BD465DF8047B704700060E4074
S214403330FCFFC8FE02003701FCFFC8FF0100370053
S2144033400000370180B400AF044B9B6E03F480331B
S2144033501846BD465DF8047B704700BF00060E4029
S21440336080B400AF044B4FF000529A6200BFBD4697
S2144033705DF8047B704700BF00060E4080B400AF87
S214403380044B9B6E03F002031846BD465DF8047B73
S214403390704700BF00060E4080B400AF044B9B6EE3
S2144033A003F040031846BD465DF8047B704700BFF7
S2144033B000060E4080B485B000AF78600B4A7B684C
S2144033C003F07F03C2F80C31084BD3F80C3143F0BE
S2144033D01023FB60054AFB68C2F80C3100231846F0
S2144033E01437BD465DF8047B704700BF00060E40AC
S2144033F080B483B000AF78607B685B6803F00203FC
S214403400002B01D0012300E0002318460C37BD46B0
S2144034105DF8047B7047000080B582B000AF7860EE
S2144034207868034B984700BF0837BD4680BD00BF4D
S214403430B533400080B582B000AF78607B68094AFB
S214403440934203D11520084B984706E07B68074A0D
S214403450934202D12A20044B984700BF0837BD4606
S21440346080BD00BF00800040193440000080054009
S21440347080B483B000AF786039607B685B6823F4C3
S21440348070227B685A607B685A683B681B0403F46A
S21440349070231A437B685A6000BF0C37BD465DF800
S2144034A0047B704780B483B000AF786039607B6837
S2144034B05B6823F07F427B685A607B685A683B684B
S2144034C01B061A437B685A6000BF0C37BD465DF842
S2144034D0047B704780B584B000AF786008461146DC
S2144034E01A4603467B800B467B7013463B7043F67A
S2144034F09823FB6006E0FB685A1EFA60002B01D159
S214403500012320E07B681B6903F00203002BF2D006
S21440351078680F4B98470346002B0ED07A887B7806
S2144035201B0403F470231343BB603B78002B06D088
S214403530BB6843F08073BB6001E07B88BB607B6800
S214403540BA68DA60002318461037BD4680BD00BF13
S214403550F133400080B485B000AFF860B9607A605F
S2144035607B68002B0CD0FB68BA680C3253F82230CC
S21440357043F00101FB68BA680C3243F822100BE0B6
S214403580FB68BA680C3253F8223023F00101FB681E
S214403590BA680C3243F8221000BF1437BD465DF8B7
S2144035A0047B704780B485B000AFF860B9607A603D
S2144035B07B68002B0CD0FB68BA680C3253F822307C
S2144035C043F00201FB68BA680C3243F822100BE065
S2144035D0FB68BA680C3253F8223023F00201FB68CD
S2144035E0BA680C3243F8221000BF1437BD465DF867
S2144035F0047B704780B485B000AFF860B9607A60ED
S2144036007B68042B18D1FB68BA680C3253F822301A
S21440361023F00801FB68BA680C3243F82210FB68B6
S214403620BA680C3253F8223043F00401FB68BA689B
S2144036300C3243F822102AE07B68002B18D1FB6836
S214403640BA680C3253F8223023F00801FB68BA6897
S2144036500C3243F82210FB68BA680C3253F822301A
S21440366023F00401FB68BA680C3243F822100EE0DF
S2144036707B68082B0BD1FB68BA680C3253F82230B3
S21440368043F00801FB68BA680C3243F8221000BFCA
S2144036901437BD465DF8047B704780B485B000AFF4
S2144036A0F860B9607A60FB68BA680C3253F822302A
S2144036B023F0F001FB68BA680C3243F82210FB682E
S2144036C0BA680C3253F822207B6842EA0301FB6852
S2144036D0BA680C3243F8221000BF1437BD465DF876
S2144036E0047B704780B485B000AF786039603A6834
S2144036F07B6813445A1E7B68B2FBF3F3FB60FB689F
S214403700002B02DDFB68FF2B02DD4FF0FF3301E0AC
S214403710FB681BB218461437BD465DF8047B7047FD
S21440372080B485B000AFF860B9601346FB71FB7992
S214403730002B02D14FF0FF331BE0FB68BA680C3217
S21440374053F8223023F47F41FB68BA680C3243F8C2
S2144037502210FB68BA680C3253F82220FB791B0211
S2144037609BB242EA0301FB68BA680C3243F8221067
S214403770002318461437BD465DF8047B704780B476
S21440378085B000AFF860B96011461A460B46FB712B
S2144037901346BB71FB68BA680C3253F8223099B2B4
S2144037A0FB68BA680C3243F82210FB68BA680C32E1
S2144037B053F82220FB791B0403F47F03B9790906EA
S2144037C00B4342EA0301FB68BA680C3243F8221006
S2144037D000BF1437BD465DF8047B704780B483B0A5
S2144037E000AF78607B6808221A607B6820221A60E7
S2144037F07B6804221A6000BF0C37BD465DF8047B28
S2144038007047000080B584B000AF78603960002310
S214403810FB607B684FF0FF329A627B681B6A786871
S2144038200B4B984778680B4B98473B6859683B6802
S2144038301B681A467868084B98470346012B01D107
S2144038400123FB60FB6818461037BD4680BD00BFAD
S214403850713B4000DD3740005D38400080B489B0A1
S21440386000AFF860B9607A600023FB61BB68344AF9
S214403870934201D901235DE0BB68324A934237D96F
S2144038807B68314AA2FB03239B0B033B7B61BA68F0
S2144038902E4B13449B007A68B2FBF3F3033B3B6129
S2144038A005E0FB690133FB617B695B087B617B69F3
S2144038B0FF2B09D9FB69062BF3D905E0FB690133D9
S2144038C0FB613B695B083B613B69FF2B02D9FB69A7
S2144038D0062BF3D97B69DAB23B691B029BB21A43CB
S2144038E0FB691B0403F4E0231A43FB681A6120E0DB
S2144038F0BB685B007A68B2FBF3F3033BBB6105E051
S214403900FB690133FB61BB695B08BB61BB69FF2B8D
S21440391002D9FB69062BF3D9BB69DAB2BB691B0235
S2144039209BB21A43FB691B0403F4E0231A43FB686B
S2144039301A61002318462437BD465DF8047B70475D
S214403940801A060000DC0500F11976050012FD3FDE
S21440395080B485B000AF786039603B68002B01D1F9
S21440396000231DE07B681B78FB603B68012B09DD6C
S214403970FB681B02FB607B6801331B781A46FB68BA
S2144039801343FB603B68022B09DDFB681B02FB60B0
S2144039907B6802331B781A46FB681343FB60FB6860
S2144039A018461437BD465DF8047B704780B586B030
S2144039B000AF786039603B68DB687B613B689B683A
S2144039C03B6147F23053FB607B69002B01D10123FA
S2144039D059E07B6800225A603B681B7C1B0403F45A
S2144039E0FE023B685B681B0203F44073134343F4D8
S2144039F080527B685A607B680022DA603A683B688F
S214403A005B6819461046224B984702467B68DA6048
S214403A107B6801221A6029E07B681B6ABB60BB6832
S214403A2003F48073002B01D005232CE0FB685A1E5C
S214403A30FA60002B01D1092325E07B69012B02D1D6
S214403A407B6802221A60BB6803F00203002B00D199
S214403A500CE03B695A1C3A617A68126BD2B21A7013
S214403A607B69013B7B6147F23053FB607B69002BEF
S214403A70D2D100BF7B681B6A03F00103002BF9D04C
S214403A807B681B6A002318461837BD4680BD00BFBA
S214403A905139400080B586B000AF786039603B68E9
S214403AA0DB687B613B689B683B617B69002B01D18F
S214403AB0012356E07B6800225A603B681B7C1B044F
S214403AC003F4FE023B685B681B0203F440731A4330
S214403AD07B685A607B680022DA603A683B685B68BD
S214403AE019461046214B984702467B68DA6019E033
S214403AF07B681B6AFB60FB6803F48073002B01D075
S214403B0005232EE0FB6803F00403002B00D109E0F8
S214403B103B695A1C3A611B781A467B685A637B6934
S214403B20013B7B617B69002BE2D17B681B6AFB60B3
S214403B30FB6803F48073002B01D0052311E0FB687B
S214403B4003F00403002B00D1EFE700BF7B6802229E
S214403B501A6000BF7B681B6A03F00103002BF9D094
S214403B60002318461837BD4680BD00BF5139400077
S214403B7080B483B000AF78607B6880221A607B6830
S214403B801B6B00BF0C37BD465DF8047B704780B4A6
S214403B9085B000AF786039600023FB607B68AC225C
S214403BA01A603B681A683B685B68B2FBF3F31B0914
S214403BB0FB60FB68002B03D0FB68B3F5803F01D366
S214403BC001230AE07B68FA681A623B689A687B6859
S214403BD05A607B6850221A60002318461437BD4648
S214403BE05DF8047B704780B483B000AF78600B46C6
S214403BF0FB707B685B6903F00203002B01D1012355
S214403C0003E0FA787B68DA61002318460C37BD4635
S214403C105DF8047B704780B483B000AF786039604D
S214403C207B685B6903F00103002B01D1012305E0AB
S214403C307B689B69DAB23B681A70002318460C37DB
S214403C40BD465DF8047B704780B489B000AFF8602D
S214403C50B9607A60BB681A017B689A4202D8102322
S214403C60FB6101E00823FB617B68DA00FB69B96809
S214403C7001FB03F35B081A44FB69B96801FB03F3D5
S214403C80B2FBF3F3BB61BB69DB087B61BB6903F046
S214403C9007033B617B69002B03D07B69B3F5803F0C
S214403CA001D301230FE0FB69082B05D1FB685B6855
S214403CB043F40022FB685A603B691A047B691A4346
S214403CC0FB681A62002318462437BD465DF8047B1D
S214403CD07047000080B582B000AF786078680D4BC2
S214403CE098477B6800225A607B6800225A627B684D
S214403CF000229A627868084B98477868074B98473E
S214403D007868074B98477868064B984700BF08374F
S214403D10BD4680BDB53E4000C73D4000FB3D40002F
S214403D20153E4000313E400080B584B000AFF8609C
S214403D30B9607A60F8681A4B98471A4B00221A60A6
S214403D40BB68002B09D0BB681B687A681946F868C0
S214403D50154B98470346002B01D001231BE0BB6858
S214403D605A68BB689B681A43BB681B691A43BB68A2
S214403D70DB681A430B4B1B6813430A4A1360094B14
S214403D801B68084A1360FB685A68064B1B681A4350
S214403D90FB685A60002318461037BD4680BD00BFFA
S214403DA0D53C400084114020493C400080B483B05C
S214403DB000AF78607B6840221A6000BF0C37BD4673
S214403DC05DF8047B704780B483B000AF78607B6852
S214403DD088221A6000BF0C37BD465DF8047B7047EA
S214403DE080B483B000AF78607B6810221A6000BF52
S214403DF00C37BD465DF8047B704780B483B000AF97
S214403E0078607B6824221A6000BF0C37BD465DF898
S214403E10047B704780B483B000AF78607B684FF413
S214403E2080721A6000BF0C37BD465DF8047B704751
S214403E3080B483B000AF78607B684FF400221A608D
S214403E4000BF0C37BD465DF8047B704780B483B036
S214403E5000AF786039607B685B6903F00203002B33
S214403E6001D1012305E03B68C3F308027B68DA61B1
S214403E70002318460C37BD465DF8047B704780B477
S214403E8083B000AF786039607B685B6903F00103FC
S214403E90002B01D1012306E07B689B69C3F308022F
S214403EA03B681A60002318460C37BD465DF8047B15
S214403EB07047000080B483B000AF78607B68044AE7
S214403EC0C3F8E42000BF0C37BD465DF8047B70475E
S214403ED00041535580B483B000AFEFF310837B604E
S214403EE07B68002B0CBF01230023DBB23B6072B61D
S214403EF0BFF35F8F044B00221A703B6818460C379E
S214403F00BD465DF8047B70470A00402080B483B00D
S214403F1000AF78607B68002B14BF01230023DBB220
S214403F2018460C37BD465DF8047B704780B582B0B6
S214403F3000AF78607868074B98470346002B05D05B
S214403F40054B01221A70BFF35F8F62B600BF083779
S214403F50BD4680BD0D3F40000A00402080B584B07D
S214403F6000AF1E4BFB601E4BBB60FA68BB689A42B4
S214403F700CD007E0BB681A1DBA60FA68111DF960DC
S214403F8012681A60BB68174A9342F3D3164BBB605D
S214403F9004E0BB681A1DBA6000221A60BB68134A68
S214403FA09342F6D3124BFB60124AFB6823F07F0322
S214403FB09360114B98477860104A104B1B6843F447
S214403FC070031360BFF34F8FBFF36F8F78680C4B4F
S214403FD098470C4B98470C4B9847FEE7D4974300BE
S214403FE000004020500B4020500B40203C12402008
S214403FF00000400000ED00E0D53E400088ED00E0C7
S2144040002D3F4000A1594000A153400080B400AF6E
S214404010FEE7000080B400AF524B1B6B03F0030377
S214404020012B14D0012B02D3022B38D07AE04E4B12
S2144040305B6903F08003002B04D04C4B4FF40042E6
S2144040401A606FE0494B4FF4FA421A606AE0454BFB
S2144040501B6A03F08073002B03D0444B444A1A601B
S21440406060E0424B434A1A603E4B1B6A03F07003C3
S214404070102B04D0202B08D0002B0ED00EE03B4B4C
S2144040801B685B00394A136008E0384B1A681346D1
S2144040905B001344354A136000E000BF42E0314BFA
S2144040A01B6A03F08073002B03D0304B304A1A60F3
S2144040B01CE02E4B2F4A1A602A4B1B6A03F07003F3
S2144040C0102B04D0202B08D0002B0ED00EE0274B10
S2144040D01B685B00254A136008E0244B1A681346A9
S2144040E05B001344214A136000E000BF1D4B1B6B6E
S2144040F003F00303022B14D11A4B9B6A1B0CC3F329
S2144041000A030133194A126802FB03F3174A136085
S214404110144B9B6ADBB2154A1268B2FBF3F3134AA0
S214404120136000BF0F4B1B6B03F07003702B08D15E
S2144041300E4B1B68104AA2FB03235B080B4A136016
S2144041400AE0084B1B6B1B0903F00703074A12687B
S21440415022FA03F3054A136000BFBD465DF8047BB0
S214404160704700BF00060E4010180E400C0040205E
S214404170001BB70000093D00ABAAAAAA80B483B0D2
S21440418000AF78607B681D4A934204D81C4B4FF0C2
S21440419080621A602BE07B681A4A934203D8184B19
S2144041A0194A1A6023E07B68184A934203D8144B96
S2144041B0174A1A601BE07B68164A934203D8104B96
S2144041C0154A1A6013E07B68144A934204D80C4B95
S2144041D04FF004221A600AE07B68114A934203D8E3
S2144041E0074B104A1A6002E0054B0F4A1A6000BFA0
S2144041F00C37BD465DF8047B704700BFBFF35E01D9
S214404200000C0E407FE7BD02000100043FDB1C04AB
S21440421000020004FFCE7B0500030004BFC2DA069E
S2144042207FB63908000500040006000480B485B057
S21440423000AF7860104BFB60104B1B68002B02D120
S2144042400E4B0F4A1A600D4B1B68BB60BA687B6802
S2144042501A44FB689A4202DD4FF0FF3306E0074BF4
S2144042601A687B681344054A1360BB6818461437BF
S214404270BD465DF8047B7047FCFF45208811402012
S2144042804034402080B483B000AF78604FF0FF33B6
S21440429018460C37BD465DF8047B704780B483B043
S2144042A000AF786039603B684FF400525A60002394
S2144042B018460C37BD465DF8047B704780B483B023
S2144042C000AF7860012318460C37BD465DF8047B86
S2144042D0704780B485B000AFF860B9607A6000235C
S2144042E018461437BD465DF8047B704780B483B0EB
S2144042F000AF0346FB71094997F907305B09FA7925
S21440430002F01F02012000FA02F241F8232000BF0B
S2144043100C37BD465DF8047B704700BF00E100E007
S21440432080B483B000AF0346FB71094997F9073064
S2144043305B09FA7902F01F02012000FA02F22033EC
S21440434041F8232000BF0C37BD465DF8047B70471C
S21440435000E100E080B483B000AF0346FB7109493A
S21440436097F907305B09FA7902F01F02012000FA3C
S21440437002F2603341F8232000BF0C37BD465DF89B
S214404380047B704700E100E080B483B000AF034692
S2144043903960FB7197F90730002B0BDA0D49FB7932
S2144043A003F00F03043B3A68D2B25201D2B20B4438
S2144043B01A7609E0084997F907303A68D2B25201AE
S2144043C0D2B20B4483F8002300BF0C37BD465DF8DD
S2144043D0047B704700ED00E000E100E080B483B06D
S2144043E000AF78607B68072B25D801A252F823F0EF
S2144043F011444000174440001D4440002344400000
S214404400274440002B4440002F44400033444000A3
S2144044104FF4FA4310E04FF400430DE04FF40043EE
S2144044200AE0084B08E0084B06E0084B04E0074B60
S21440443002E0064B00E0002318460C37BD465DF808
S214404440047B704700093D0000127A00001BB7004D
S21440445080B500AF0620054B9847024613469B00A2
S21440446013449A001344184680BD00BFDD43400005
S21440447080B500AF024B98470346184680BD00BF44
S2144044805144400080B500AF024B984703465B0856
S214404490184680BD5144400080B582B000AF786079
S2144044A07868034B984700BF0837BD4680BD00BFBD
S2144044B0B533400080B58CB000AF786039604F4B64
S2144044C0984703467B623B681B68BB623B689B68B9
S2144044D0FB623B681B68FB603B685B683B613B6814
S2144044E09B687B613B68DB68BB610023FB617B6844
S2144044F0434A934208D10720424B984707F124038A
S21440450019467868404B98477B68404A934208D1A2
S21440451008203C4B984707F12403194678683A4BE5
S21440452098477B683A4A934208D12C20354B9847A7
S21440453007F1240319467868334B98477B68354A19
S214404540934208D12D202F4B984707F12403194654
S21440455078682D4B98477B682F4A934208D12E2087
S214404560284B984707F1240319467868264B984706
S2144045707B682A4A934211D10D20224B98471F4B05
S2144045809847024607F10C0319467868244B98472B
S2144045907868244B98477868234B98477B68234A2B
S2144045A0934211D10E20174B9847144B984702461A
S2144045B007F10C0319467868194B98477868194BE9
S2144045C098477868184B98477B68194A934211D1A8
S2144045D00F200C4B9847094B9847024607F10C03AF
S2144045E0194678680E4B984778680E4B9847786817
S2144045F00D4B984700BF3037BD4680BD85444000D0
S21440460000080E40994440008F3B4000000A0E4090
S214404610001A0E40001C0E40001E0E400040024095
S214404620293D4000AD3D4000E13D40000080024055
S21440463000C0024080B582B000AF78600B46FB7089
S2144046407B68364A93420AD100BFFB7819467868A1
S214404650334B98470346002BF7D101235AE07B683B
S214404660304A93420AD100BFFB78194678682C4BF3
S21440467098470346002BF7D101234BE07B682A4A34
S21440468093420AD100BFFB7819467868244B984776
S2144046900346002BF7D101233CE07B68234A934234
S2144046A00AD100BFFB78194678681D4B98470346E9
S2144046B0002BF7D101232DE07B681D4A93420AD197
S2144046C000BFFB78194678681A4B98470346002B7C
S2144046D0F7D101231EE07B68174A93420AD100BFF8
S2144046E0FB7819467868134B98470346002BF7D15A
S2144046F001230FE07B68114A93420AD100BFFB7842
S214404700194678680B4B98470346002BF7D1012390
S21440471000E0002318460837BD4680BD00080E401E
S214404720E73B4000000A0E40001A0E40001C0E40B8
S214404730004002404D3E40000080024000C0024023
S21440474080B584B000AF786039600023FB607B683A
S214404750344A934207D100BF39687868324B98474D
S2144047600346002BF8D17B68304A934207D100BFFE
S214404770396878682C4B98470346002BF8D17B68FD
S2144047802B4A934207D100BF39687868264B984732
S2144047900346002BF8D17B68264A934207D100BFD8
S2144047A039687868204B98470346002BF8D17B68D9
S2144047B0214A93420DD100BF07F10C031946786891
S2144047C01E4B98470346002BF6D1FB68DAB23B688F
S2144047D01A707B681A4A93420DD100BF07F10C034A
S2144047E019467868154B98470346002BF6D1FB6868
S2144047F0DAB23B681A707B68124A93420DD100BF0A
S21440480007F10C03194678680C4B98470346002B73
S214404810F6D1FB68DAB23B681A7000BF1037BD4667
S21440482080BD00BF00080E40173C4000000A0E4006
S214404830001A0E40001C0E40004002407F3E4000E2
S2144048400080024000C0024080B582B000AF786071
S21440485039600F4A7B6813600E4B0F4A1A600F4B45
S2144048600F4A1A60396878680E4B98470E4B1B689B
S2144048709B68002118460D4B98470B4B1B685B689E
S21440488000211846094B984700BF0837BD4680BDF3
S214404890D0114020CC11402035464000C811402061
S2144048A041474000B5444000A001402061604000C0
S2144048B080B582B000AF78603960144B98470246A6
S2144048C03B681A603B6800225A727B68104A9342E3
S2144048D003D113200F4B98470EE07B680E4A934255
S2144048E003D114200B4B984706E07B680B4A934253
S2144048F002D12920074B984739687868084B984773
S214404900034618460837BD4680BD00BF8544400074
S214404910008001409944400000C00140000006402D
S2144049200538400080B400AF044B1B68DB6B034A7D
S214404930136000BFBD465DF8047B704710124020F0
S21440494080B400AF044B1B689B6B034A136000BFE8
S214404950BD465DF8047B70471012402080B500AF1E
S2144049600B480C4B98470C4B1B78DBB2002B06D001
S2144049700A48084B9847084B00221A7005E008483A
S214404980044B9847044B01221A7000BF80BD00BFFD
S21440499034944300F1594000D811402044944300D9
S2144049A05494430080B500AF034B01221A70034B6A
S2144049B0984700BF80BD00BF0C1240200550400005
S2144049C080B500AF044B00221A70044B00221A70C8
S2144049D0034B984700BF80BD0C1240208C114020EE
S2144049E0E151400080B400AF094B1B78DBB2002B8E
S2144049F008D0074B00221A70064B00221A70064B4E
S214404A0001221A7000BFBD465DF8047B704700BFA8
S214404A100C1240208C1140200D12402090B486B0DD
S214404A2000AFF860B9607A603B6000237B612DE0A0
S214404A30FB681B881A463B689A4221D8FB681B884D
S214404A401A46FB689B8813441A463B689A4217D31B
S214404A50FB685B881A463B6A9A4211D8FB685B88BB
S214404A601A46FB68DB8813441A463B6A9A4207D3C9
S214404A70BA68FB6814460FCB84E80F0001230AE0AF
S214404A80FB681033FB607B6901337B617A697B6826
S214404A909A42CDD3002318461837BD4690BC70477F
S214404AA080B500AF094B4FF4F0721A60074B4FF4D5
S214404AB0A0725A60054B064A9A60044B044ADA6074
S214404AC00248044B984700BF80BD00BFFC11402001
S214404AD0FCFCFC002D23400080B483B000AF78601F
S214404AE07A6813461B019B1A5B011B0BC3F5F073D8
S214404AF018460C37BD465DF8047B704780B483B0DB
S214404B0000AF78607A6813469B0013449B011B0BEA
S214404B10C3F5A07318460C37BD465DF8047B704756
S214404B202DE9B0439EB000AF7860734A07F16C033E
S214404B3007CA03C31A80714B07F148041D460FCDC0
S214404B400FC40FCD0FC42B6823606D4A07F13C039A
S214404B5007CA03C31A706B4B07F118041D460FCDE6
S214404B600FC40FCD0FC42B68237007F10C0300222F
S214404B701A605A609A60644B3B614A233B7507F162
S214404B800C0319466148624B9847034687F87730CE
S214404B9002234A225D4978685E4CA047034687F860
S214404BA077300022062178685B4B984703460122FF
S214404BB019467868594B9847594B984703461946C3
S214404BC04FF000020B4614464FEA841949EA9369AF
S214404BD04FEA831843464C465B1844EB020441F2C6
S214404BE02B714FF0000213EB010844EB02094046DC
S214404BF049464C4C41F22C724FF00003A047034606
S214404C000C461846484B9847002207217868424B86
S214404C1098470346202219467868404B984700221A
S214404C20072178683C4B9847034601339BB21022D5
S214404C3019467868394B9847002207217868364BE2
S214404C409847034602339BB24B2219467868334B4B
S214404C5098470022072178682F4B9847034603332E
S214404C609BB28422194678682C4B9847002208212C
S214404C707868294B98470346194607F16C031A464D
S214404C8078682A4B9847002209217868224B984733
S214404C900346194607F148031A467868234B984757
S214404CA000222E2178681C4B98470346194607F188
S214404CB03C031A4678681D4B98470022382178688E
S214404CC0154B98470346194607F118031A46786865
S214404CD0164B98470022062178680F4B98470346A4
S214404CE002339BB20122194678680C4B984700BFA6
S214404CF07837BD46BDE8B083649443007094430063
S214404D0094944300A0944300801A0600008001401B
S214404D10B1484000DD0A4000950B4000790C400049
S214404D20714440009156400001004020FD0B400079
S214404D3090B5D9B002AF07F10C03186007F108032D
S214404D4019603B1D1A6007F17803D22200211846ED
S214404D504B4B9847002387F8573107F16C0207F111
S214404D600C0311461868474B98470346002B60D102
S214404D70B7F86E301846444B9847C7F85001B7F816
S214404D8070301846414B9847C7F84C0197F86D303D
S214404D90202B40D13A1D07F15C0107F10800D7F8F7
S214404DA04C310093D7F8503112680068384CA04711
S214404DB00346002B2FD0374B1B6819463648374BD7
S214404DC09847B7F85C20364B1B889A4205D1B7F80F
S214404DD05E20334B5B889A4202D0BB6E98471AE0FF
S214404DE0B7F85C202E4B1B889A4214D1B7F85E2049
S214404DF02B4B5B889A420ED1264B1B68022B05D163
S214404E00244B00221A60BB6E984704E0214B1B6877
S214404E100133204A136007F1140207F17803114664
S214404E201846204B984797F85731013387F8573143
S214404E3000E000BF07F10C0318681B4B9847034679
S214404E401A4697F85731022B94BF01230023DBB252
S214404E501340002B81D197F85731002B0BD007F128
S214404E6078031846114B9847024607F178031946CF
S214404E700F48104B984700BF07F5AE77BD4690BD2C
S214404E80895F40008D0D4000D94A4000FD4A4000F1
S214404E901D4A400090114020C4944300F159400000
S214404EA0700140204D624000E50C400081634000A8
S214404EB000800240F112400080B584B000AF034647
S214404EC03960FB8000211848184B9847FB881946E4
S214404ED01548174B98471448164B9847F86000BF3C
S214404EE01148144B98470246FB689A42F8D03A68F5
S214404EF0FB68134419460C480F4B984703200F4B4A
S214404F00984703200E4B9847002103200D4B9847A7
S214404F1003200D4B98474FF4803103480B4B98477E
S214404F2000BF1037BD4680BD30180E400502400019
S214404F30D5014000D50240001D03400021434000FB
S214404F405543400089434000ED4240005D0240002A
S214404F5080B582B000AF0848084B984778607B68B9
S214404F6003F00103002B02D0054B01221A7000BF4C
S214404F700837BD4680BD00BF30180E4003034000D2
S214404F808C11402090B583B002AF0A20144B98474E
S214404F9001234FF400624FF020511248124CA047B4
S214404FA014224FF400610F48104B98474FF40061AD
S214404FB00C480F4B98470A200E4B984701210A2071
S214404FC00D4B98470D4B009350234FF400620A2137
S214404FD004480B4CA04700BF18460437BD4690BD5A
S214404FE0B5334000000E0E404D2B4000BD2840001B
S214404FF0852C4000ED42400089434000E549400092
S214405000D92F40002DE9F04F83B002AF4FF4006235
S2144050104FF0205149484A4B98470346002B41D110
S214405020484B00221A70484B9847484B98470346CF
S21440503019464FF000020B4614464FEA441B4BEA13
S214405040D36B4FEA431A53465C465B1A64EB020442
S2144050504FEA840949EA93794FEA830843464C4627
S2144050605B1844EB0204260146EA13761D012B46E4
S21440507034461946224641F22B734FF00004CD18B1
S21440508042EB040628463146314C41F22C724FF032
S2144050900003A04703460C4618462E4B98472E4B17
S2144050A0984745E02D482E4B98474FF4A0734FF451
S2144050B0F072002100202B4CA0472B4B1B88184633
S2144050C0294B5B881946284B9B689B881A46264B7B
S2144050D09B68DB881C46244B9B681B6800932346D2
S2144050E0224CA047224B1B881846214B5B8819460A
S2144050F01F4B9B689B881A461D4B9B68DB881C464B
S2144051001B4B9B681B6800932346184CA047194BC3
S21440511001221A70184B1B681B6A174A1268526A9B
S21440512002FB03F2144B1B68DB6A1344134A1360FA
S21440513000BF0437BD46BDE8F08F00BF000E0E40EE
S214405140112940000C124020D50440007144400014
S2144051509156400001004020E1514000FCFCFC001C
S214405160A1244000CD25400090014020DD2740008E
S214405170700140208C11402010124020D411402055
S21440518080B400AF114B124A9A63104B114ADA634F
S214405190104B0E4A9A630F4B0F4ADA630E4B0D4A7A
S2144051A09A630D4B0D4ADA630C4B0B4A9A630B4BD2
S2144051B0074ADA63064B094A9A63054B034ADA63A1
S2144051C0044B1846BD465DF8047B704710004020EF
S2144051D0100140205000402090004020D000402049
S2144051E0B0B586B006AF354B98470246344B1A608A
S2144051F03448354B98474FF4A0734FF4F072002173
S2144052000020324CA0472E4B1B6831491846314B84
S2144052109847314C314D324A02AB07CA83E8070003
S2144052206A46231D93E8030082E80300236895E856
S21440523007002C4CA0472C4B1B8818462A4B5B88F3
S2144052401946294B9B689B881A46274B9B68DB88E8
S2144052501C46254B9B681B6800932346234CA0475F
S214405260234B1B881846224B5B881946204B9B686D
S2144052709B881A461E4B9B68DB881C461C4B9B68CB
S2144052801B6800932346194CA0471A4B1B881846A8
S214405290184B5B881946174B9B689B881A46154BDC
S2144052A09B68DB881C46134B9B681B680093234611
S2144052B00E4CA04700BFBD46B0BD00BF8151400068
S2144052C010124020FCFCFC00A1244000CD254000EC
S2144052D0DC114020CD034000E0734200D44342003E
S2144052E0ECA342007903400080014020DD274000C7
S2144052F050014020600140202DE9F84F00AF224B7E
S21440530000221A70214B9847214B9847034619466E
S2144053104FF000020B4614464FEA441B4BEAD36B51
S2144053204FEA431A53465C465B1A64EB02044FEA64
S214405330840949EA93794FEA830843464C465B180A
S21440534044EB0204260146EA13761D012B463446FA
S2144053501946224641F22B734FF00004CD1842EB1B
S2144053600406284631460B4C41F22C724FF000039F
S214405370A04703460C461846074B9847074B9847A6
S21440538000BFBDE8F88F00BF0D124020D504400096
S214405390714440009156400001004020E1514000D9
S2144053A090B5ADF5317D02AF944B07F51C740FCB2D
S2144053B084E80F00924B07F520740FCB84E80F006B
S2144053C0904B07F524740FCB84E80F008E4B07F5FF
S2144053D028740FCB84E80F00884B07F514740FCB66
S2144053E084E80F00894B07F518740FCB84E80F004C
S2144053F0874B07F508740FCB84E80F00854B98471A
S214405400854B9847854B984707F50C731846844B51
S214405410984707F5087319468248834B9847834B4D
S214405420984707F50073002281491846814B9847F4
S214405430814B9847814B1B78DBB2002B03D06F4BD8
S2144054407F4A9A6002E06D4B7E4A9A606B4B1B889F
S21440545018466A4B5B881946684B9B689B881A4679
S214405460664B9B68DB881C46644B9B681B680093B6
S2144054702346754CA047754B1B78DBB2002B01D0FA
S214405480734B984707F50C731846724B984703467C
S214405490002B33D0704B1B78DBB2002B13D1674BFD
S2144054A01B78DBB2002B0ED107F51C7107F50C7389
S2144054B004221846694B9847694B1B686949184649
S2144054C0694B98471AE0644B1B78DBB2002B0DD033
S2144054D05A4B1B78DBB2002B08D107F5147107F541
S2144054E00C73022218465D4B984707E007F5147187
S2144054F007F50C7301221846584B98475B4B1B78B0
S214405500DBB2002B96D0544B1B78DBB2002B91D0ED
S2144055105748584B9847D6234FF4BC7296214FF4C1
S2144055209C70554CA0474FF4A0734FF4C8724FF48C
S21440553082714FF48870504CA0474623822228211F
S21440554064204D4CA047AA23AA228C2164204A4CB2
S214405550A0474FF4917391224FF482716420464CD9
S214405560A0474FF40043A7F8B6323C23C7F8B03202
S214405570B7F8B632D7F8B0121846404B98473B4B70
S21440558000221A703A483B4B984707F500731A4674
S2144055907821E6203A4B98470020364B9847394BBF
S2144055A01A6807F5007322491846224B984707F5B4
S2144055B000731A467821E620314B98473B46324ADC
S2144055C007CA03C31A703B461A46782182202C4BE2
S2144055D0984707F580732D4A92E8030083E8030056
S2144055E007F580731A4678214FF48C70244B984701
S2144055F0244B1B68013B234A13601BE77001402085
S2144056006001402050014020800140209001402011
S214405610F094430069114000791D4000A14A4000C3
S214405620214B40000080024049484000E151400084
S214405630D894430001624000854F4000D811402076
S214405640A4834100B0B34100DD2740000D12402046
S214405650F9524000E50C40000C124020314D40000D
S21440566010124020DC114020CD0340008C11402019
S214405670FCFCFC00A1244000CD254000B94E400073
S2144056807D274000D4114020DC944300E89443003A
S21440569053B94AB9002908BF00281CBF4FF0FF3154
S2144056A04FF0FF3000F07AB9ADF1080C6DE904CE4A
S2144056B000F006F8DDF804E0DDE9022304B07047A8
S2144056C02DE9F0478C460D460446089E002B51D1E6
S2144056D08A4217466DD9B2FA82FEBEF1000F0BD051
S2144056E0CEF1200C01FA0EF520FA0CFC02FA0EF769
S2144056F04CEA050C00FA0EF44FEA174A250CBCFBA0
S214405700FAF81FFA87F90AFB18CC45EA0C4508FB5D
S21440571009F3AB420AD9ED1908F1FF3280F0238134
S214405720AB4240F22081A8F102083D44ED1AA4B2F3
S214405730B5FBFAF00AFB105544EA054400FB09F9AC
S214405740A14509D9E41900F1FF3380F00A81A1454B
S21440575040F2078102383C44A4EB090440EA084082
S2144057600021002E61D024FA0EF4002334607360CA
S214405770BDE8F0878B4207D9002E54D0002186E83A
S21440578021000846BDE8F087B3FA83F1002940F0CF
S2144057908E80AB4202D3824200F2FA80841A65EBD6
S2144057A003050120AC46002E3FD086E81010BDE829
S2144057B0F08712B90127B7FBF2F7B7FA87FEBEF1BA
S2144057C0000F34D1EB1B3A0C1FFA87FC0121B3FBC8
S2144057D0F2F8250C02FB183345EA03450CFB08F3A8
S2144057E0AB4207D9ED1908F1FF3002D2AB4200F2C6
S2144057F0D1808046ED1AA3B2B5FBF2F002FB1055FD
S21440580043EA05440CFB00FCA44507D9E41900F123
S214405810FF3302D2A44500F2B8801846A4EB0C042D
S21440582040EA08409DE731463046BDE8F087CEF175
S214405830200405FA0EF307FA0EF720FA04F83A0C9D
S21440584025FA04F448EA0308B4FBF2F14FEA184597
S21440585002FB11441FFA87FC45EA044501FB0CF3A2
S214405860AB4200FA0EF409D9ED1901F1FF3080F091
S2144058708A80AB4240F2878002393D44EB1A1FFAD9
S21440588088F5B3FBF2F002FB103345EA034500FB14
S2144058900CF3AB4207D9ED1900F1FF386FD2AB429B
S2144058A06DD902383D44EB1A40EA01418FE7C1F119
S2144058B0200722FA07F88B4005FA01F448EA03036A
S2144058C020FA07FE4FEA134CFD404EEA040EB5FBA5
